{
  "_format": "hh-sol-artifact-1",
  "contractName": "Coffee",
  "sourceName": "contracts/Coffee.sol",
  "abi": [
    {
      "inputs": [],
      "stateMutability": "payable",
      "type": "constructor"
    },
    {
      "anonymous": false,
      "inputs": [
        {
          "indexed": true,
          "internalType": "address",
          "name": "from",
          "type": "address"
        },
        {
          "indexed": false,
          "internalType": "uint256",
          "name": "timestamp",
          "type": "uint256"
        },
        {
          "indexed": false,
          "internalType": "string",
          "name": "message",
          "type": "string"
        }
      ],
      "name": "NewCoffeeBought",
      "type": "event"
    },
    {
      "inputs": [
        {
          "internalType": "string",
          "name": "_message",
          "type": "string"
        }
      ],
      "name": "buyCoffee",
      "outputs": [],
      "stateMutability": "payable",
      "type": "function"
    },
    {
      "inputs": [],
      "name": "getAllCoffeesBought",
      "outputs": [
        {
          "components": [
            {
              "internalType": "address",
              "name": "buyer",
              "type": "address"
            },
            {
              "internalType": "string",
              "name": "message",
              "type": "string"
            },
            {
              "internalType": "uint256",
              "name": "timestamp",
              "type": "uint256"
            }
          ],
          "internalType": "struct Coffee.CoffeesBought[]",
          "name": "",
          "type": "tuple[]"
        }
      ],
      "stateMutability": "view",
      "type": "function"
    },
    {
      "inputs": [],
      "name": "getTotalCoffeesBought",
      "outputs": [
        {
          "internalType": "uint256",
          "name": "",
          "type": "uint256"
        }
      ],
      "stateMutability": "view",
      "type": "function"
    },
    {
      "inputs": [],
      "name": "owner",
      "outputs": [
        {
          "internalType": "address payable",
          "name": "",
          "type": "address"
        }
      ],
      "stateMutability": "view",
      "type": "function"
    },
    {
      "inputs": [],
      "name": "withdraw",
      "outputs": [],
      "stateMutability": "payable",
      "type": "function"
    }
  ],
  "bytecode": "0x608060405262000033604051806060016040528060258152602001620011f2602591396200007a60201b6200058a1760201c565b33600160006101000a81548173ffffffffffffffffffffffffffffffffffffffff021916908373ffffffffffffffffffffffffffffffffffffffff1602179055506200020e565b6200011a8160405160240162000091919062000187565b6040516020818303038152906040527f41304fac000000000000000000000000000000000000000000000000000000007bffffffffffffffffffffffffffffffffffffffffffffffffffffffff19166020820180517bffffffffffffffffffffffffffffffffffffffffffffffffffffffff83818316178352505050506200011d60201b60201c565b50565b60008151905060006a636f6e736f6c652e6c6f679050602083016000808483855afa5050505050565b60006200015382620001ab565b6200015f8185620001b6565b935062000171818560208601620001c7565b6200017c81620001fd565b840191505092915050565b60006020820190508181036000830152620001a3818462000146565b905092915050565b600081519050919050565b600082825260208201905092915050565b60005b83811015620001e7578082015181840152602081019050620001ca565b83811115620001f7576000848401525b50505050565b6000601f19601f8301169050919050565b610fd4806200021e6000396000f3fe60806040526004361061004a5760003560e01c80632b371b541461004f5780633ccfd60b1461006b5780638da5cb5b14610075578063b9f14e46146100a0578063e3a3e5ef146100cb575b600080fd5b61006960048036038101906100649190610892565b6100f6565b005b6100736102a1565b005b34801561008157600080fd5b5061008a6103e5565b6040516100979190610b29565b60405180910390f35b3480156100ac57600080fd5b506100b561040b565b6040516100c29190610b44565b60405180910390f35b3480156100d757600080fd5b506100e061055c565b6040516100ed9190610c5d565b60405180910390f35b600066038d7ea4c68000905080341015610145576040517f08c379a000000000000000000000000000000000000000000000000000000000815260040161013c90610bfd565b60405180910390fd5b60016000808282546101579190610d6f565b92505081905550600260405180606001604052803373ffffffffffffffffffffffffffffffffffffffff16815260200184815260200142815250908060018154018082558091505060019003906000526020600020906003020160009091909190915060008201518160000160006101000a81548173ffffffffffffffffffffffffffffffffffffffff021916908373ffffffffffffffffffffffffffffffffffffffff160217905550602082015181600101908051906020019061021d929190610787565b5060408201518160020155505061024d604051806080016040528060478152602001610f58604791393384610623565b3373ffffffffffffffffffffffffffffffffffffffff167f4e5218b6c5867e6606bb06bda5ee7a9ec791911ceaee5a21f6f2ce74d2f918e84284604051610295929190610c78565b60405180910390a25050565b600160009054906101000a900473ffffffffffffffffffffffffffffffffffffffff1673ffffffffffffffffffffffffffffffffffffffff163373ffffffffffffffffffffffffffffffffffffffff1614610331576040517f08c379a000000000000000000000000000000000000000000000000000000000815260040161032890610c3d565b60405180910390fd5b600047905060008111610379576040517f08c379a000000000000000000000000000000000000000000000000000000000815260040161037090610c1d565b60405180910390fd5b600160009054906101000a900473ffffffffffffffffffffffffffffffffffffffff1673ffffffffffffffffffffffffffffffffffffffff166108fc829081150290604051600060405180830381858888f193505050501580156103e1573d6000803e3d6000fd5b5050565b600160009054906101000a900473ffffffffffffffffffffffffffffffffffffffff1681565b60606002805480602002602001604051908101604052809291908181526020016000905b8282101561055357838290600052602060002090600302016040518060600160405290816000820160009054906101000a900473ffffffffffffffffffffffffffffffffffffffff1673ffffffffffffffffffffffffffffffffffffffff1673ffffffffffffffffffffffffffffffffffffffff1681526020016001820180546104b890610e55565b80601f01602080910402602001604051908101604052809291908181526020018280546104e490610e55565b80156105315780601f1061050657610100808354040283529160200191610531565b820191906000526020600020905b81548152906001019060200180831161051457829003601f168201915b505050505081526020016002820154815250508152602001906001019061042f565b50505050905090565b6000610582604051806060016040528060328152602001610f26603291396000546106c2565b600054905090565b6106208160405160240161059e9190610b66565b6040516020818303038152906040527f41304fac000000000000000000000000000000000000000000000000000000007bffffffffffffffffffffffffffffffffffffffffffffffffffffffff19166020820180517bffffffffffffffffffffffffffffffffffffffffffffffffffffffff838183161783525050505061075e565b50565b6106bd83838360405160240161063b93929190610b88565b6040516020818303038152906040527fe0e9ad4f000000000000000000000000000000000000000000000000000000007bffffffffffffffffffffffffffffffffffffffffffffffffffffffff19166020820180517bffffffffffffffffffffffffffffffffffffffffffffffffffffffff838183161783525050505061075e565b505050565b61075a82826040516024016106d8929190610bcd565b6040516020818303038152906040527f9710a9d0000000000000000000000000000000000000000000000000000000007bffffffffffffffffffffffffffffffffffffffffffffffffffffffff19166020820180517bffffffffffffffffffffffffffffffffffffffffffffffffffffffff838183161783525050505061075e565b5050565b60008151905060006a636f6e736f6c652e6c6f679050602083016000808483855afa5050505050565b82805461079390610e55565b90600052602060002090601f0160209004810192826107b557600085556107fc565b82601f106107ce57805160ff19168380011785556107fc565b828001600101855582156107fc579182015b828111156107fb5782518255916020019190600101906107e0565b5b509050610809919061080d565b5090565b5b8082111561082657600081600090555060010161080e565b5090565b600061083d61083884610cd9565b610ca8565b90508281526020810184848401111561085557600080fd5b610860848285610e13565b509392505050565b600082601f83011261087957600080fd5b813561088984826020860161082a565b91505092915050565b6000602082840312156108a457600080fd5b600082013567ffffffffffffffff8111156108be57600080fd5b6108ca84828501610868565b91505092915050565b60006108df8383610abb565b905092915050565b6108f081610dd7565b82525050565b6108ff81610dc5565b82525050565b61090e81610dc5565b82525050565b600061091f82610d19565b6109298185610d3c565b93508360208202850161093b85610d09565b8060005b85811015610977578484038952815161095885826108d3565b945061096383610d2f565b925060208a0199505060018101905061093f565b50829750879550505050505092915050565b600061099482610d24565b61099e8185610d4d565b93506109ae818560208601610e22565b6109b781610f14565b840191505092915050565b60006109cd82610d24565b6109d78185610d5e565b93506109e7818560208601610e22565b6109f081610f14565b840191505092915050565b6000610a08601b83610d5e565b91507f496e73756666696369656e742045746865722070726f766964656400000000006000830152602082019050919050565b6000610a48601983610d5e565b91507f4e6f206574686572206c65667420746f207769746864726177000000000000006000830152602082019050919050565b6000610a88600e83610d5e565b91507f6e6f7420746865206f776e6572210000000000000000000000000000000000006000830152602082019050919050565b6000606083016000830151610ad360008601826108f6565b5060208301518482036020860152610aeb8282610989565b9150506040830151610b006040860182610b0b565b508091505092915050565b610b1481610e09565b82525050565b610b2381610e09565b82525050565b6000602082019050610b3e60008301846108e7565b92915050565b60006020820190508181036000830152610b5e8184610914565b905092915050565b60006020820190508181036000830152610b8081846109c2565b905092915050565b60006060820190508181036000830152610ba281866109c2565b9050610bb16020830185610905565b8181036040830152610bc381846109c2565b9050949350505050565b60006040820190508181036000830152610be781856109c2565b9050610bf66020830184610b1a565b9392505050565b60006020820190508181036000830152610c16816109fb565b9050919050565b60006020820190508181036000830152610c3681610a3b565b9050919050565b60006020820190508181036000830152610c5681610a7b565b9050919050565b6000602082019050610c726000830184610b1a565b92915050565b6000604082019050610c8d6000830185610b1a565b8181036020830152610c9f81846109c2565b90509392505050565b6000604051905081810181811067ffffffffffffffff82111715610ccf57610cce610ee5565b5b8060405250919050565b600067ffffffffffffffff821115610cf457610cf3610ee5565b5b601f19601f8301169050602081019050919050565b6000819050602082019050919050565b600081519050919050565b600081519050919050565b6000602082019050919050565b600082825260208201905092915050565b600082825260208201905092915050565b600082825260208201905092915050565b6000610d7a82610e09565b9150610d8583610e09565b9250827fffffffffffffffffffffffffffffffffffffffffffffffffffffffffffffffff03821115610dba57610db9610e87565b5b828201905092915050565b6000610dd082610de9565b9050919050565b6000610de282610de9565b9050919050565b600073ffffffffffffffffffffffffffffffffffffffff82169050919050565b6000819050919050565b82818337600083830152505050565b60005b83811015610e40578082015181840152602081019050610e25565b83811115610e4f576000848401525b50505050565b60006002820490506001821680610e6d57607f821691505b60208210811415610e8157610e80610eb6565b5b50919050565b7f4e487b7100000000000000000000000000000000000000000000000000000000600052601160045260246000fd5b7f4e487b7100000000000000000000000000000000000000000000000000000000600052602260045260246000fd5b7f4e487b7100000000000000000000000000000000000000000000000000000000600052604160045260246000fd5b6000601f19601f830116905091905056fe436f6e7472616374206d6573736167653a205765206861766520256420746f74616c20636f666665657320626f7567687421436f6e7472616374206d6573736167653a20257320626f7567687420796f75206120636f6666656520776974682074686520666f6c6c6f77696e67206d6573736167653a202573a2646970667358221220f2a6d84fe15e6ec9de109001af7b62863dd0e32237409d9c7284b65846a0351664736f6c63430008000033596f20796f2c204920616d206120636f6e747261637420616e64204920616d20736d617274",
  "linkReferences": {},
  "deployedLinkReferences": {}
}